S00C00006D61696E2E7372656373
S113000018E4FF1FF90B0000590C0000590C000004
S113001000000000000000000000000000000000DC
S1130020000000000000000000000000590C000067
S11300300000000000000000590C0000590C0000F2
S1130040F90B0000F90B0000F90B0000F90B00009C
S113005000000000F90B0000F90B0000F90B000090
S1130060F90B0000F90B0000F90B0000F90B00007C
S1130070F90B0000F90B0000F90B0000F90B00006C
S1130080F90B0000F90B0000F90B0000F90B00005C
S1130090F90B0000F90B0000F90B00000000000050
S11300A0F90B0000F90B0000F90B0000F90B00003C
S11300B0F90B000000000000F90B000061090000CA
S1130400FFFFFFFFFFFFFFFFFFFFFFFFFEFFFFFFF9
S113041010B5264B0022882149015A5024481C5803
S1130420244921431950244B1868802109020143AF
S1130430196019688020814319602049CA610A62E1
S11304408A62CA624A658A65CA651D494A648A64C1
S11304501C490A601C490A614A611C4919605A60B6
S11304609A601B4919611B495961C02109039961AB
S11304701949D9611A625A629A62DA621749196390
S11304805A639A63DA631A645A6411219964DA64C8
S11304901A65113159659A65DA651968104A11406F
S11304A019601A6802431A6010BDC0460070044007
S11304B038100000003C08000030054000A0044053
S11304C000B0044000C0044000D004406384B00085
S11304D0800D0E006001300000011000000088440F
S11304E0FF7FFFFF10B50F4B4522FF219954143AAB
S11304F07739995422390A3A9954002228241A55F2
S11305002D34195520395A540F2806D9054B002289
S11305102A215A5401315A5410BD423900F004F8CA
S1130520FAE7C0460030054010B5042906D80F2864
S113053000D906E18000854B1B589F460120FFF738
S1130540D1FF10BD4B1E5B00814AD35C81488446B9
S11305506344BB20187049000139535C6344EE22A4
S11305601A70EEE74B1E5B00794AD35C79488446E7
S113057063440020187049000139535C63446622C7
S11305801A70DEE74B1E5B00714AD35C71488446E7
S113059063447720187049000139535C6344CC22CA
S11305A01A70CEE74B1E5B00694AD35C69488446E7
S11305B063445520187049000139535C6344EE22AA
S11305C01A70BEE74B1E5B00614AD35C61488446E7
S11305D06344CC20187049000139535C634466229B
S11305E01A70AEE74B1E5B00594AD35C59488446E7
S11305F06344DD20187049000139535C6344AA2226
S11306001A709EE74B1E5B00514AD35C51488446E6
S11306106344FF20187049000139535C6344AA22E3
S11306201A708EE74B1E5B00494AD35C49488446E6
S113063063440020187049000139535C6344EE227E
S11306401A707EE74B1E5B00414AD35C41488446E6
S11306506344FF20187049000139535C6344EE225F
S11306601A706EE74B1E5B00394AD35C39488446E6
S11306706344CC20187049000139535C6344EE2272
S11306801A705EE74B1E5B003148C35C314A9446E6
S11306906344EE221A7049000139435C63441A70C2
S11306A04FE74B1E5B002A4AD35C2A4884466344C6
S11306B0FF20187049000139535C634422221A70E8
S11306C03FE74B1E5B00224AD35C224884466344C6
S11306D0BB20187049000139535C634488221A70A6
S11306E02FE74B1E5B001A4AD35C1A4884466344C6
S11306F07720187049000139535C634466221A70EC
S11307001FE74B1E5B00124AD35C124884466344C5
S1130710FF20187049000139535C634488221A7021
S11307200FE74B1E5B000A4AD35C0A4884466344C5
S1130730EE20187049000139535C634488221A7012
S1130740FFE60120FFF7CEFEFBE6C0464C0F00009B
S11307508C0F00002030054070B50400000B01210F
S1130760FFF7E2FE200A0F2528400221FFF7DCFEF6
S1130770201128400321FFF7D7FE20002840042140
S1130780FFF7D2FE70BD70B50400214B984203D927
S11307901020FFF7A7FE70BDFA21890000F060FA6F
S11307A085B2C0B20121FFF7BFFEA805401B80013E
S11307B0401940004019C0002018642100F0DAFA02
S11307C0C0B20221FFF7B0FE6421200000F048FA15
S11307D082B24006801A80008018C000801A80000F
S11307E020180A2100F0C6FAC0B20321FFF79CFECC
S11307F00A21200000F034FA02004001801A80002F
S1130800801A40000019C0B20421FFF78DFEC2E730
S11308100F27000070B506000D0063238342A44136
S113082064428B429B415B42234303D01020FFF779
S113083059FE70BD0A2100F013FAC0B20121FFF77E
S113084073FE0A21300000F091FAC8B20221FFF7CA
S11308506BFE0A21280000F003FAC0B20321FFF75F
S113086063FE0A21280000F081FAC8B20421FFF7D0
S11308705BFE04492B228B5C11200343DBB28B54B7
S1130880D7E7C04600300540024B03221A7000220D
S11308905A70704700400640144B882252010021D0
S11308A09950134958588022120102435A50114B4F
S11308B0D968802252000A43DA60DA6802210A43C6
S11308C0DA60DA6801390A43DA60D968A0221203CF
S11308D00A43DA60084AC721890053581B021B0ADD
S11308E0535080231B0613607047C04600700440B9
S11308F03810000000B0044000E100E0144B8822EE
S11309005201002199501349585880221201024380
S11309105A50114B196B802252000A431A631A6B06
S113092002210A431A631A6B01390A431A63196BC9
S1130930A02212030A431A63084AC72189005358A4
S11309401B021B0A535080231B0613607047C046CA
S1130950007004403810000000B0044000E100E0E2
S11309600E49A0228B58012040428850082B0AD0FF
S11309708022520193420BD0094B1A6859688C4665
S113098062449A60704706490A6801320A60EFE7D8
S1130990034A536801335360EEE7C04600B0044095
S11309A000E0FF1F0C4B88225201002199500B4993
S11309B058588022120102435A50094BD9688122A7
S11309C052001143D960196B0A431A63054A5369EB
S11309D005490B4053617047007004403810000013
S11309E000B0044080F00F40F7EFFFFF0A4B88226D
S11309F052010021995009495858013AFF3A0243DB
S1130A005A50074B802252005A61064B5A692021E2
S1130A100A435A615960704700700440381000005E
S1130A2000C00440C0F00F40024A936820210B43E9
S1130A3093607047C0F00F40024A536820210B4373
S1130A4053607047C0F00F400C4B882252010021C4
S1130A5099500B4958588022920102435A50094B2D
S1130A60802252005A67084B59698022920511432B
S1130A70596159680A435A607047C046007004407F
S1130A803810000000D0044000F10F40034A916880
S1130A9080239B050B4393607047C04600F10F40D1
S1130AA0034A516880239B050B4353607047C0463B
S1130AB000F10F4010B50F4B8822520100219950CC
S1130AC00D495858C022920102435A5080235B00BA
S1130AD00A4A53610A4A53670A4A53692024234342
S1130AE05361094B59698020800501435961546061
S1130AF0586010BD007004403810000000C004406D
S1130B0000D00440C0F00F4000F10F4000B583B0A6
S1130B10FFF7BAFEFFF77CFC3348FFF734FEFFF71C
S1130B20C9FFFFF7B9FEFFF7E9FE00210020FFF738
S1130B3071FE2E4B01930023009311E02C4A13699C
S1130B40013313612A4B00221A605A60284B002299
S1130B509A60197C187BFFF75DFE009B01330093BC
S1130B60009B1F2B30D8009A01239340019A1A420C
S1130B7010D0FFF759FFFFF793FF1D4B9B68002B25
S1130B80FBD01B4B1B68002BD8D0194AD368013308
S1130B90D360D7E7FFF77AFFFFF74EFF144B9B684C
S1130BA0002BFBD0124B5B68002B08D0104AD36893
S1130BB00133D3600E4B00221A605A60C6E70C4A18
S1130BC0136901331361F5E70A4B5A6880210A431C
S1130BD05A605A687E390A435A60054B197C187B5F
S1130BE0FFF718FEF0E7C0469A020000984DB132B4
S1130BF000E0FF1F0030054080B582B000AF114B0C
S1130C007B60114B3B6007E07A68131D7B603B6897
S1130C10191D396012681A603A680C4B9A42F3D372
S1130C200B4B3B6004E03B681A1D3A6000221A60DB
S1130C303A68084B9A42F6D3FFF768FFC046BD46B0
S1130C4002B080BD9C0F000000E0FF1F00E0FF1F0A
S1130C5000E0FF1F14E0FF1F80B500AFFEE7C046B1
S1130C60002243088B4274D303098B425FD3030AE7
S1130C708B4244D3030B8B4228D3030C8B420DD3FA
S1130C80FF22090212BA030C8B4202D31212090288
S1130C9065D0030B8B4219D300E0090AC30B8B42C6
S1130CA001D3CB03C01A5241830B8B4201D38B0374
S1130CB0C01A5241430B8B4201D34B03C01A524119
S1130CC0030B8B4201D30B03C01A5241C30A8B425C
S1130CD001D3CB02C01A5241830A8B4201D38B0247
S1130CE0C01A5241430A8B4201D34B02C01A5241EB
S1130CF0030A8B4201D30B02C01A5241CDD2C3095D
S1130D008B4201D3CB01C01A524183098B4201D3D8
S1130D108B01C01A524143098B4201D34B01C01AC3
S1130D20524103098B4201D30B01C01A5241C3083B
S1130D308B4201D3CB00C01A524183088B4201D3AA
S1130D408B00C01A524143088B4201D34B00C01A96
S1130D505241411A00D20146524110467047FFE702
S1130D6001B5002000F0F0F802BDC0460029F7D01C
S1130D7076E7704703460B437FD4002243088B4237
S1130D8074D303098B425FD3030A8B4244D3030B0E
S1130D908B4228D3030C8B420DD3FF22090212BAD3
S1130DA0030C8B4202D31212090265D0030B8B424F
S1130DB019D300E0090AC30B8B4201D3CB03C01A39
S1130DC05241830B8B4201D38B03C01A5241430B14
S1130DD08B4201D34B03C01A5241030B8B4201D304
S1130DE00B03C01A5241C30A8B4201D3CB02C01A6F
S1130DF05241830A8B4201D38B02C01A5241430AE7
S1130E008B4201D34B02C01A5241030A8B4201D3D5
S1130E100B02C01A5241CDD2C3098B4201D3CB017C
S1130E20C01A524183098B4201D38B01C01A52412B
S1130E3043098B4201D34B01C01A524103098B422F
S1130E4001D30B01C01A5241C3088B4201D3CB001A
S1130E50C01A524183088B4201D38B00C01A5241FD
S1130E6043088B4201D34B00C01A5241411A00D2AD
S1130E7001465241104670475DE0CA0F00D0494216
S1130E80031000D34042534000229C4603098B4286
S1130E902DD3030A8B4212D3FC22890112BA030A0E
S1130EA08B420CD3890192118B4208D38901921190
S1130EB08B4204D389013AD0921100E08909C30915
S1130EC08B4201D3CB01C01A524183098B4201D317
S1130ED08B01C01A524143098B4201D34B01C01A02
S1130EE0524103098B4201D30B01C01A5241C3087A
S1130EF08B4201D3CB00C01A524183088B4201D3E9
S1130F008B00C01A5241D9D243088B4201D34B0003
S1130F10C01A5241411A00D20146634652415B1045
S1130F20104601D34042002B00D549427047634626
S1130F305B1000D3404201B5002000F005F802BD6B
S1130F400029F8D016E770477047C04644050000F2
S1130F506405000084050000A4050000C405000029
S1130F60E405000004060000240600004406000016
S1130F706406000084060000A2060000C206000009
S1130F80E2060000020700002207000025110708FE
S1070F9035260A0BE9
S1070F94F8B5C046A2
S1070F98F8B5C0469E
S9030410E8
